{
  "contractName": "Voting",
  "abi": [
    {
      "inputs": [
        {
          "internalType": "uint256",
          "name": "",
          "type": "uint256"
        }
      ],
      "name": "mapignore",
      "outputs": [
        {
          "internalType": "uint256",
          "name": "",
          "type": "uint256"
        }
      ],
      "stateMutability": "view",
      "type": "function",
      "constant": true
    },
    {
      "inputs": [
        {
          "internalType": "uint256",
          "name": "",
          "type": "uint256"
        }
      ],
      "name": "mapno",
      "outputs": [
        {
          "internalType": "uint256",
          "name": "",
          "type": "uint256"
        }
      ],
      "stateMutability": "view",
      "type": "function",
      "constant": true
    },
    {
      "inputs": [
        {
          "internalType": "uint256",
          "name": "",
          "type": "uint256"
        }
      ],
      "name": "mapyes",
      "outputs": [
        {
          "internalType": "uint256",
          "name": "",
          "type": "uint256"
        }
      ],
      "stateMutability": "view",
      "type": "function",
      "constant": true
    },
    {
      "inputs": [],
      "name": "option",
      "outputs": [
        {
          "internalType": "enum Voting.Options",
          "name": "",
          "type": "uint8"
        }
      ],
      "stateMutability": "view",
      "type": "function",
      "constant": true
    },
    {
      "inputs": [],
      "name": "qnum",
      "outputs": [
        {
          "internalType": "uint256",
          "name": "",
          "type": "uint256"
        }
      ],
      "stateMutability": "view",
      "type": "function",
      "constant": true
    },
    {
      "inputs": [
        {
          "internalType": "uint256",
          "name": "",
          "type": "uint256"
        }
      ],
      "name": "questions",
      "outputs": [
        {
          "internalType": "string",
          "name": "question",
          "type": "string"
        },
        {
          "internalType": "address",
          "name": "asker",
          "type": "address"
        },
        {
          "internalType": "uint256",
          "name": "questionNumber",
          "type": "uint256"
        }
      ],
      "stateMutability": "view",
      "type": "function",
      "constant": true
    },
    {
      "inputs": [
        {
          "internalType": "uint256",
          "name": "",
          "type": "uint256"
        }
      ],
      "name": "votes",
      "outputs": [
        {
          "internalType": "address",
          "name": "voterAddress",
          "type": "address"
        },
        {
          "internalType": "enum Voting.Options",
          "name": "option",
          "type": "uint8"
        },
        {
          "internalType": "uint256",
          "name": "questionNumber",
          "type": "uint256"
        }
      ],
      "stateMutability": "view",
      "type": "function",
      "constant": true
    },
    {
      "inputs": [
        {
          "internalType": "string",
          "name": "str",
          "type": "string"
        }
      ],
      "name": "askQuestion",
      "outputs": [],
      "stateMutability": "nonpayable",
      "type": "function"
    },
    {
      "inputs": [
        {
          "internalType": "uint256",
          "name": "_questionNumber",
          "type": "uint256"
        },
        {
          "internalType": "enum Voting.Options",
          "name": "_option",
          "type": "uint8"
        }
      ],
      "name": "Vote",
      "outputs": [],
      "stateMutability": "nonpayable",
      "type": "function"
    },
    {
      "inputs": [
        {
          "internalType": "uint256",
          "name": "_questionNumber",
          "type": "uint256"
        }
      ],
      "name": "noOfVotes",
      "outputs": [
        {
          "internalType": "uint256",
          "name": "",
          "type": "uint256"
        },
        {
          "internalType": "uint256",
          "name": "",
          "type": "uint256"
        },
        {
          "internalType": "uint256",
          "name": "",
          "type": "uint256"
        }
      ],
      "stateMutability": "view",
      "type": "function",
      "constant": true
    },
    {
      "inputs": [
        {
          "internalType": "uint256",
          "name": "_questionNumber",
          "type": "uint256"
        }
      ],
      "name": "isVoted",
      "outputs": [
        {
          "internalType": "bool",
          "name": "",
          "type": "bool"
        }
      ],
      "stateMutability": "view",
      "type": "function",
      "constant": true
    },
    {
      "inputs": [
        {
          "internalType": "uint256",
          "name": "num",
          "type": "uint256"
        }
      ],
      "name": "giveQuestion",
      "outputs": [
        {
          "internalType": "string",
          "name": "",
          "type": "string"
        },
        {
          "internalType": "address",
          "name": "",
          "type": "address"
        },
        {
          "internalType": "uint256",
          "name": "",
          "type": "uint256"
        }
      ],
      "stateMutability": "view",
      "type": "function",
      "constant": true
    },
    {
      "inputs": [
        {
          "internalType": "uint256",
          "name": "num",
          "type": "uint256"
        }
      ],
      "name": "giveVotes",
      "outputs": [
        {
          "internalType": "address",
          "name": "",
          "type": "address"
        },
        {
          "internalType": "enum Voting.Options",
          "name": "",
          "type": "uint8"
        },
        {
          "internalType": "uint256",
          "name": "",
          "type": "uint256"
        }
      ],
      "stateMutability": "view",
      "type": "function",
      "constant": true
    },
    {
      "inputs": [],
      "name": "questionLength",
      "outputs": [
        {
          "internalType": "uint256",
          "name": "",
          "type": "uint256"
        }
      ],
      "stateMutability": "view",
      "type": "function",
      "constant": true
    },
    {
      "inputs": [],
      "name": "votesLength",
      "outputs": [
        {
          "internalType": "uint256",
          "name": "",
          "type": "uint256"
        }
      ],
      "stateMutability": "view",
      "type": "function",
      "constant": true
    }
  ],
  "bytecode": "0x608060405234801561001057600080fd5b506114b0806100206000396000f3fe608060405234801561001057600080fd5b50600436106100f55760003560e01c8063780ac84e11610097578063d792a7c511610066578063d792a7c5146102da578063de4f63471461030c578063e8bc13131461032a578063ed6ead0014610348576100f5565b8063780ac84e1461022a57806394ccbd351461025a5780639ccc6b9214610278578063bb660d81146102aa576100f5565b806331560aae116100d357806331560aae1461017857806331b1b978146101aa5780635df81330146101dc578063602bdec81461020e576100f5565b8063010035af146100fa5780632665efbb146101185780632b5be34d14610148575b600080fd5b610102610364565b60405161010f9190610c9b565b60405180910390f35b610132600480360381019061012d9190610d00565b610377565b60405161013f9190610d3c565b60405180910390f35b610162600480360381019061015d9190610d00565b61038f565b60405161016f9190610d3c565b60405180910390f35b610192600480360381019061018d9190610d00565b6103a7565b6040516101a193929190610e31565b60405180910390f35b6101c460048036038101906101bf9190610d00565b6104ec565b6040516101d393929190610e31565b60405180910390f35b6101f660048036038101906101f19190610d00565b6105ce565b60405161020593929190610e6f565b60405180910390f35b61022860048036038101906102239190610fdb565b610635565b005b610244600480360381019061023f9190610d00565b61071c565b6040516102519190610d3c565b60405180910390f35b610262610734565b60405161026f9190610d3c565b60405180910390f35b610292600480360381019061028d9190610d00565b610741565b6040516102a193929190611024565b60405180910390f35b6102c460048036038101906102bf9190610d00565b61078f565b6040516102d19190611076565b60405180910390f35b6102f460048036038101906102ef9190610d00565b6108e1565b60405161030393929190610e6f565b60405180910390f35b6103146109ce565b6040516103219190610d3c565b60405180910390f35b6103326109db565b60405161033f9190610d3c565b60405180910390f35b610362600480360381019061035d91906110b6565b6109e1565b005b600660009054906101000a900460ff1681565b60026020528060005260406000206000915090505481565b60036020528060005260406000206000915090505481565b60606000806000600485815481106103c2576103c16110f6565b5b90600052602060002090600302016040518060600160405290816000820180546103eb90611154565b80601f016020809104026020016040519081016040528092919081815260200182805461041790611154565b80156104645780601f1061043957610100808354040283529160200191610464565b820191906000526020600020905b81548152906001019060200180831161044757829003601f168201915b505050505081526020016001820160009054906101000a900473ffffffffffffffffffffffffffffffffffffffff1673ffffffffffffffffffffffffffffffffffffffff1673ffffffffffffffffffffffffffffffffffffffff1681526020016002820154815250509050806000015181602001518260400151935093509350509193909250565b600481815481106104fc57600080fd5b906000526020600020906003020160009150905080600001805461051f90611154565b80601f016020809104026020016040519081016040528092919081815260200182805461054b90611154565b80156105985780601f1061056d57610100808354040283529160200191610598565b820191906000526020600020905b81548152906001019060200180831161057b57829003601f168201915b5050505050908060010160009054906101000a900473ffffffffffffffffffffffffffffffffffffffff16908060020154905083565b600581815481106105de57600080fd5b90600052602060002090600202016000915090508060000160009054906101000a900473ffffffffffffffffffffffffffffffffffffffff16908060000160149054906101000a900460ff16908060010154905083565b600060405180606001604052808381526020013373ffffffffffffffffffffffffffffffffffffffff1681526020016000548152509050600481908060018154018082558091505060019003906000526020600020906003020160009091909190915060008201518160000190816106ad9190611331565b5060208201518160010160006101000a81548173ffffffffffffffffffffffffffffffffffffffff021916908373ffffffffffffffffffffffffffffffffffffffff16021790555060408201518160020155505060008081548092919061071390611432565b91905055505050565b60016020528060005260406000206000915090505481565b6000600480549050905090565b60008060006001600085815260200190815260200160002054600260008681526020019081526020016000205460036000878152602001908152602001600020549250925092509193909250565b600080600090505b6005805490508110156108d6576000600582815481106107ba576107b96110f6565b5b90600052602060002090600202016040518060600160405290816000820160009054906101000a900473ffffffffffffffffffffffffffffffffffffffff1673ffffffffffffffffffffffffffffffffffffffff1673ffffffffffffffffffffffffffffffffffffffff1681526020016000820160149054906101000a900460ff16600281111561084e5761084d610c24565b5b60028111156108605761085f610c24565b5b815260200160018201548152505090503373ffffffffffffffffffffffffffffffffffffffff16816000015173ffffffffffffffffffffffffffffffffffffffff161480156108b25750838160400151145b156108c2576001925050506108dc565b5080806108ce90611432565b915050610797565b50600090505b919050565b600080600080600585815481106108fb576108fa6110f6565b5b90600052602060002090600202016040518060600160405290816000820160009054906101000a900473ffffffffffffffffffffffffffffffffffffffff1673ffffffffffffffffffffffffffffffffffffffff1673ffffffffffffffffffffffffffffffffffffffff1681526020016000820160149054906101000a900460ff16600281111561098f5761098e610c24565b5b60028111156109a1576109a0610c24565b5b81526020016001820154815250509050806000015181602001518260400151935093509350509193909250565b6000600580549050905090565b60005481565b6000548211156109f057600080fd5b60006109fb8361078f565b90506001151581151503610a0f5750610c20565b81600660006101000a81548160ff02191690836002811115610a3457610a33610c24565b5b0217905550600060405180606001604052803373ffffffffffffffffffffffffffffffffffffffff168152602001600660009054906101000a900460ff166002811115610a8457610a83610c24565b5b8152602001858152509050600581908060018154018082558091505060019003906000526020600020906002020160009091909190915060008201518160000160006101000a81548173ffffffffffffffffffffffffffffffffffffffff021916908373ffffffffffffffffffffffffffffffffffffffff16021790555060208201518160000160146101000a81548160ff02191690836002811115610b2d57610b2c610c24565b5b021790555060408201518160010155505060006002811115610b5257610b51610c24565b5b836002811115610b6557610b64610c24565b5b03610b9857600160008581526020019081526020016000206000815480929190610b8e90611432565b9190505550610c1d565b60016002811115610bac57610bab610c24565b5b836002811115610bbf57610bbe610c24565b5b03610bf257600260008581526020019081526020016000206000815480929190610be890611432565b9190505550610c1c565b600360008581526020019081526020016000206000815480929190610c1690611432565b91905055505b5b50505b5050565b7f4e487b7100000000000000000000000000000000000000000000000000000000600052602160045260246000fd5b60038110610c6457610c63610c24565b5b50565b6000819050610c7582610c53565b919050565b6000610c8582610c67565b9050919050565b610c9581610c7a565b82525050565b6000602082019050610cb06000830184610c8c565b92915050565b6000604051905090565b600080fd5b600080fd5b6000819050919050565b610cdd81610cca565b8114610ce857600080fd5b50565b600081359050610cfa81610cd4565b92915050565b600060208284031215610d1657610d15610cc0565b5b6000610d2484828501610ceb565b91505092915050565b610d3681610cca565b82525050565b6000602082019050610d516000830184610d2d565b92915050565b600081519050919050565b600082825260208201905092915050565b60005b83811015610d91578082015181840152602081019050610d76565b83811115610da0576000848401525b50505050565b6000601f19601f8301169050919050565b6000610dc282610d57565b610dcc8185610d62565b9350610ddc818560208601610d73565b610de581610da6565b840191505092915050565b600073ffffffffffffffffffffffffffffffffffffffff82169050919050565b6000610e1b82610df0565b9050919050565b610e2b81610e10565b82525050565b60006060820190508181036000830152610e4b8186610db7565b9050610e5a6020830185610e22565b610e676040830184610d2d565b949350505050565b6000606082019050610e846000830186610e22565b610e916020830185610c8c565b610e9e6040830184610d2d565b949350505050565b600080fd5b600080fd5b7f4e487b7100000000000000000000000000000000000000000000000000000000600052604160045260246000fd5b610ee882610da6565b810181811067ffffffffffffffff82111715610f0757610f06610eb0565b5b80604052505050565b6000610f1a610cb6565b9050610f268282610edf565b919050565b600067ffffffffffffffff821115610f4657610f45610eb0565b5b610f4f82610da6565b9050602081019050919050565b82818337600083830152505050565b6000610f7e610f7984610f2b565b610f10565b905082815260208101848484011115610f9a57610f99610eab565b5b610fa5848285610f5c565b509392505050565b600082601f830112610fc257610fc1610ea6565b5b8135610fd2848260208601610f6b565b91505092915050565b600060208284031215610ff157610ff0610cc0565b5b600082013567ffffffffffffffff81111561100f5761100e610cc5565b5b61101b84828501610fad565b91505092915050565b60006060820190506110396000830186610d2d565b6110466020830185610d2d565b6110536040830184610d2d565b949350505050565b60008115159050919050565b6110708161105b565b82525050565b600060208201905061108b6000830184611067565b92915050565b6003811061109e57600080fd5b50565b6000813590506110b081611091565b92915050565b600080604083850312156110cd576110cc610cc0565b5b60006110db85828601610ceb565b92505060206110ec858286016110a1565b9150509250929050565b7f4e487b7100000000000000000000000000000000000000000000000000000000600052603260045260246000fd5b7f4e487b7100000000000000000000000000000000000000000000000000000000600052602260045260246000fd5b6000600282049050600182168061116c57607f821691505b60208210810361117f5761117e611125565b5b50919050565b60008190508160005260206000209050919050565b60006020601f8301049050919050565b600082821b905092915050565b6000600883026111e77fffffffffffffffffffffffffffffffffffffffffffffffffffffffffffffffff826111aa565b6111f186836111aa565b95508019841693508086168417925050509392505050565b6000819050919050565b600061122e61122961122484610cca565b611209565b610cca565b9050919050565b6000819050919050565b61124883611213565b61125c61125482611235565b8484546111b7565b825550505050565b600090565b611271611264565b61127c81848461123f565b505050565b5b818110156112a057611295600082611269565b600181019050611282565b5050565b601f8211156112e5576112b681611185565b6112bf8461119a565b810160208510156112ce578190505b6112e26112da8561119a565b830182611281565b50505b505050565b600082821c905092915050565b6000611308600019846008026112ea565b1980831691505092915050565b600061132183836112f7565b9150826002028217905092915050565b61133a82610d57565b67ffffffffffffffff81111561135357611352610eb0565b5b61135d8254611154565b6113688282856112a4565b600060209050601f83116001811461139b5760008415611389578287015190505b6113938582611315565b8655506113fb565b601f1984166113a986611185565b60005b828110156113d1578489015182556001820191506020850194506020810190506113ac565b868310156113ee57848901516113ea601f8916826112f7565b8355505b6001600288020188555050505b505050505050565b7f4e487b7100000000000000000000000000000000000000000000000000000000600052601160045260246000fd5b600061143d82610cca565b91507fffffffffffffffffffffffffffffffffffffffffffffffffffffffffffffffff820361146f5761146e611403565b5b60018201905091905056fea264697066735822122045a1def640964825122628527ec311d262743e76fdeca6eed92391fcfc9ef98264736f6c634300080f0033",
  "immutableReferences": {},
  "source": "// SPDX-License-Identifier: GPL-3.0\r\n\r\npragma solidity >= 0.5.0 < 0.9.0;\r\n\r\ncontract Voting{\r\n        uint public qnum;\r\n        mapping(uint=>uint) public mapyes;\r\n        mapping(uint=>uint) public mapno;\r\n        mapping(uint=>uint) public mapignore;\r\n        struct Questions{\r\n            string question;\r\n            address asker;\r\n            uint questionNumber;\r\n        }\r\n\r\n        enum Options{Yes,No,Ignore}\r\n\r\n        struct Votes{\r\n            address voterAddress;\r\n            Options option;\r\n            uint questionNumber;\r\n        }\r\n\r\n        Questions[] public questions;\r\n        Votes[] public votes;\r\n\r\n        function askQuestion(string memory str) public {\r\n                Questions memory q = Questions(str,msg.sender,qnum);\r\n                questions.push(q);\r\n                qnum++;\r\n        }\r\n\r\n        Options public option;\r\n\r\n       function Vote(uint _questionNumber ,  Options _option) public{\r\n           require(_questionNumber <= qnum);\r\n           bool isvoted = isVoted(_questionNumber);\r\n           if(isvoted == true){\r\n               return;\r\n           }\r\n            option = _option;\r\n            Votes memory v = Votes(msg.sender,option,_questionNumber);\r\n            votes.push(v);\r\n            if(_option == Options.Yes){\r\n                    mapyes[_questionNumber]++;\r\n            }\r\n            else if(_option == Options.No){\r\n                mapno[_questionNumber]++;\r\n            }\r\n            else{\r\n                mapignore[_questionNumber]++;\r\n            }   \r\n       }\r\n\r\n\r\n       function noOfVotes(uint _questionNumber) public view returns(uint,uint,uint){\r\n           return (mapyes[_questionNumber],mapno[_questionNumber],mapignore[_questionNumber]);\r\n\r\n       } \r\n\r\n\r\n\r\n        function isVoted(uint _questionNumber) public view returns(bool){\r\n            for(uint i = 0 ; i<votes.length;i++){\r\n                Votes memory v = votes[i];\r\n                if(v.voterAddress == msg.sender && v.questionNumber  ==  _questionNumber ){\r\n                    return true;\r\n                }\r\n            }\r\n            return false;\r\n        }\r\n\r\n\r\n    //    \r\n\r\n           function giveQuestion(uint num) public view returns(string memory,address,uint){\r\n                Questions memory ques = questions[num];\r\n                return (ques.question,ques.asker,ques.questionNumber);\r\n       }\r\n\r\n       function giveVotes(uint num) public view returns(address,Options,uint){\r\n           Votes memory vo = votes[num];\r\n           return (vo.voterAddress,vo.option,vo.questionNumber);\r\n       }\r\n\r\n       function questionLength() public view returns(uint){\r\n           return questions.length;\r\n       }\r\n\r\n       function votesLength() public view returns(uint){\r\n           return votes.length;\r\n       }\r\n\r\n        \r\n\r\n\r\n\r\n\r\n}",
  "sourcePath": "C:\\Users\\91892\\Desktop\\DeVoter\\server\\contracts\\Voting.sol",
  "compiler": {
    "name": "solc",
    "version": "0.8.15+commit.e14f2714.Emscripten.clang"
  },
  "schemaVersion": "3.4.8",
  "updatedAt": "2022-08-08T16:34:14.646Z",
  "networkType": "ethereum",
  "devdoc": {
    "kind": "dev",
    "methods": {},
    "version": 1
  },
  "userdoc": {
    "kind": "user",
    "methods": {},
    "version": 1
  }
}