{
  "contractName": "Voting",
  "abi": [
    {
      "inputs": [],
      "name": "option",
      "outputs": [
        {
          "internalType": "enum Voting.Options",
          "name": "",
          "type": "uint8"
        }
      ],
      "stateMutability": "view",
      "type": "function",
      "constant": true
    },
    {
      "inputs": [],
      "name": "qnum",
      "outputs": [
        {
          "internalType": "uint256",
          "name": "",
          "type": "uint256"
        }
      ],
      "stateMutability": "view",
      "type": "function",
      "constant": true
    },
    {
      "inputs": [
        {
          "internalType": "uint256",
          "name": "",
          "type": "uint256"
        }
      ],
      "name": "questions",
      "outputs": [
        {
          "internalType": "string",
          "name": "question",
          "type": "string"
        },
        {
          "internalType": "address",
          "name": "asker",
          "type": "address"
        },
        {
          "internalType": "uint256",
          "name": "questionNumber",
          "type": "uint256"
        }
      ],
      "stateMutability": "view",
      "type": "function",
      "constant": true
    },
    {
      "inputs": [
        {
          "internalType": "uint256",
          "name": "",
          "type": "uint256"
        }
      ],
      "name": "votes",
      "outputs": [
        {
          "internalType": "address",
          "name": "voterAddress",
          "type": "address"
        },
        {
          "internalType": "enum Voting.Options",
          "name": "option",
          "type": "uint8"
        },
        {
          "internalType": "uint256",
          "name": "questionNumber",
          "type": "uint256"
        }
      ],
      "stateMutability": "view",
      "type": "function",
      "constant": true
    },
    {
      "inputs": [
        {
          "internalType": "string",
          "name": "str",
          "type": "string"
        }
      ],
      "name": "askQuestion",
      "outputs": [],
      "stateMutability": "nonpayable",
      "type": "function"
    },
    {
      "inputs": [
        {
          "internalType": "uint256",
          "name": "_questionNumber",
          "type": "uint256"
        },
        {
          "internalType": "enum Voting.Options",
          "name": "_option",
          "type": "uint8"
        }
      ],
      "name": "Vote",
      "outputs": [],
      "stateMutability": "nonpayable",
      "type": "function"
    },
    {
      "inputs": [
        {
          "internalType": "uint256",
          "name": "_questionNumber",
          "type": "uint256"
        }
      ],
      "name": "isVoted",
      "outputs": [
        {
          "internalType": "bool",
          "name": "",
          "type": "bool"
        }
      ],
      "stateMutability": "view",
      "type": "function",
      "constant": true
    },
    {
      "inputs": [
        {
          "internalType": "uint256",
          "name": "num",
          "type": "uint256"
        }
      ],
      "name": "giveQuestion",
      "outputs": [
        {
          "internalType": "string",
          "name": "",
          "type": "string"
        },
        {
          "internalType": "address",
          "name": "",
          "type": "address"
        },
        {
          "internalType": "uint256",
          "name": "",
          "type": "uint256"
        }
      ],
      "stateMutability": "view",
      "type": "function",
      "constant": true
    },
    {
      "inputs": [
        {
          "internalType": "uint256",
          "name": "num",
          "type": "uint256"
        }
      ],
      "name": "giveVotes",
      "outputs": [
        {
          "internalType": "address",
          "name": "",
          "type": "address"
        },
        {
          "internalType": "enum Voting.Options",
          "name": "",
          "type": "uint8"
        },
        {
          "internalType": "uint256",
          "name": "",
          "type": "uint256"
        }
      ],
      "stateMutability": "view",
      "type": "function",
      "constant": true
    },
    {
      "inputs": [],
      "name": "questionLength",
      "outputs": [
        {
          "internalType": "uint256",
          "name": "",
          "type": "uint256"
        }
      ],
      "stateMutability": "view",
      "type": "function",
      "constant": true
    },
    {
      "inputs": [],
      "name": "votesLength",
      "outputs": [
        {
          "internalType": "uint256",
          "name": "",
          "type": "uint256"
        }
      ],
      "stateMutability": "view",
      "type": "function",
      "constant": true
    }
  ],
  "bytecode": "0x608060405234801561001057600080fd5b506111f6806100206000396000f3fe608060405234801561001057600080fd5b50600436106100a95760003560e01c806394ccbd351161007157806394ccbd351461017e578063bb660d811461019c578063d792a7c5146101cc578063de4f6347146101fe578063e8bc13131461021c578063ed6ead001461023a576100a9565b8063010035af146100ae57806331560aae146100cc57806331b1b978146100fe5780635df8133014610130578063602bdec814610162575b600080fd5b6100b6610256565b6040516100c39190610a18565b60405180910390f35b6100e660048036038101906100e19190610a7d565b610269565b6040516100f593929190610b93565b60405180910390f35b61011860048036038101906101139190610a7d565b6103ae565b60405161012793929190610b93565b60405180910390f35b61014a60048036038101906101459190610a7d565b610490565b60405161015993929190610bd1565b60405180910390f35b61017c60048036038101906101779190610d3d565b6104f7565b005b6101866105de565b6040516101939190610d86565b60405180910390f35b6101b660048036038101906101b19190610a7d565b6105eb565b6040516101c39190610dbc565b60405180910390f35b6101e660048036038101906101e19190610a7d565b61073d565b6040516101f593929190610bd1565b60405180910390f35b61020661082a565b6040516102139190610d86565b60405180910390f35b610224610837565b6040516102319190610d86565b60405180910390f35b610254600480360381019061024f9190610dfc565b61083d565b005b600360009054906101000a900460ff1681565b606060008060006001858154811061028457610283610e3c565b5b90600052602060002090600302016040518060600160405290816000820180546102ad90610e9a565b80601f01602080910402602001604051908101604052809291908181526020018280546102d990610e9a565b80156103265780601f106102fb57610100808354040283529160200191610326565b820191906000526020600020905b81548152906001019060200180831161030957829003601f168201915b505050505081526020016001820160009054906101000a900473ffffffffffffffffffffffffffffffffffffffff1673ffffffffffffffffffffffffffffffffffffffff1673ffffffffffffffffffffffffffffffffffffffff1681526020016002820154815250509050806000015181602001518260400151935093509350509193909250565b600181815481106103be57600080fd5b90600052602060002090600302016000915090508060000180546103e190610e9a565b80601f016020809104026020016040519081016040528092919081815260200182805461040d90610e9a565b801561045a5780601f1061042f5761010080835404028352916020019161045a565b820191906000526020600020905b81548152906001019060200180831161043d57829003601f168201915b5050505050908060010160009054906101000a900473ffffffffffffffffffffffffffffffffffffffff16908060020154905083565b600281815481106104a057600080fd5b90600052602060002090600202016000915090508060000160009054906101000a900473ffffffffffffffffffffffffffffffffffffffff16908060000160149054906101000a900460ff16908060010154905083565b600060405180606001604052808381526020013373ffffffffffffffffffffffffffffffffffffffff16815260200160005481525090506001819080600181540180825580915050600190039060005260206000209060030201600090919091909150600082015181600001908161056f9190611077565b5060208201518160010160006101000a81548173ffffffffffffffffffffffffffffffffffffffff021916908373ffffffffffffffffffffffffffffffffffffffff1602179055506040820151816002015550506000808154809291906105d590611178565b91905055505050565b6000600180549050905090565b600080600090505b6002805490508110156107325760006002828154811061061657610615610e3c565b5b90600052602060002090600202016040518060600160405290816000820160009054906101000a900473ffffffffffffffffffffffffffffffffffffffff1673ffffffffffffffffffffffffffffffffffffffff1673ffffffffffffffffffffffffffffffffffffffff1681526020016000820160149054906101000a900460ff1660028111156106aa576106a96109a1565b5b60028111156106bc576106bb6109a1565b5b815260200160018201548152505090503373ffffffffffffffffffffffffffffffffffffffff16816000015173ffffffffffffffffffffffffffffffffffffffff1614801561070e5750838160400151145b1561071e57600192505050610738565b50808061072a90611178565b9150506105f3565b50600090505b919050565b6000806000806002858154811061075757610756610e3c565b5b90600052602060002090600202016040518060600160405290816000820160009054906101000a900473ffffffffffffffffffffffffffffffffffffffff1673ffffffffffffffffffffffffffffffffffffffff1673ffffffffffffffffffffffffffffffffffffffff1681526020016000820160149054906101000a900460ff1660028111156107eb576107ea6109a1565b5b60028111156107fd576107fc6109a1565b5b81526020016001820154815250509050806000015181602001518260400151935093509350509193909250565b6000600280549050905090565b60005481565b60005482111561084c57600080fd5b6000610857836105eb565b9050600115158115150361086b575061099d565b81600360006101000a81548160ff021916908360028111156108905761088f6109a1565b5b0217905550600060405180606001604052803373ffffffffffffffffffffffffffffffffffffffff168152602001600360009054906101000a900460ff1660028111156108e0576108df6109a1565b5b8152602001858152509050600281908060018154018082558091505060019003906000526020600020906002020160009091909190915060008201518160000160006101000a81548173ffffffffffffffffffffffffffffffffffffffff021916908373ffffffffffffffffffffffffffffffffffffffff16021790555060208201518160000160146101000a81548160ff02191690836002811115610989576109886109a1565b5b021790555060408201518160010155505050505b5050565b7f4e487b7100000000000000000000000000000000000000000000000000000000600052602160045260246000fd5b600381106109e1576109e06109a1565b5b50565b60008190506109f2826109d0565b919050565b6000610a02826109e4565b9050919050565b610a12816109f7565b82525050565b6000602082019050610a2d6000830184610a09565b92915050565b6000604051905090565b600080fd5b600080fd5b6000819050919050565b610a5a81610a47565b8114610a6557600080fd5b50565b600081359050610a7781610a51565b92915050565b600060208284031215610a9357610a92610a3d565b5b6000610aa184828501610a68565b91505092915050565b600081519050919050565b600082825260208201905092915050565b60005b83811015610ae4578082015181840152602081019050610ac9565b83811115610af3576000848401525b50505050565b6000601f19601f8301169050919050565b6000610b1582610aaa565b610b1f8185610ab5565b9350610b2f818560208601610ac6565b610b3881610af9565b840191505092915050565b600073ffffffffffffffffffffffffffffffffffffffff82169050919050565b6000610b6e82610b43565b9050919050565b610b7e81610b63565b82525050565b610b8d81610a47565b82525050565b60006060820190508181036000830152610bad8186610b0a565b9050610bbc6020830185610b75565b610bc96040830184610b84565b949350505050565b6000606082019050610be66000830186610b75565b610bf36020830185610a09565b610c006040830184610b84565b949350505050565b600080fd5b600080fd5b7f4e487b7100000000000000000000000000000000000000000000000000000000600052604160045260246000fd5b610c4a82610af9565b810181811067ffffffffffffffff82111715610c6957610c68610c12565b5b80604052505050565b6000610c7c610a33565b9050610c888282610c41565b919050565b600067ffffffffffffffff821115610ca857610ca7610c12565b5b610cb182610af9565b9050602081019050919050565b82818337600083830152505050565b6000610ce0610cdb84610c8d565b610c72565b905082815260208101848484011115610cfc57610cfb610c0d565b5b610d07848285610cbe565b509392505050565b600082601f830112610d2457610d23610c08565b5b8135610d34848260208601610ccd565b91505092915050565b600060208284031215610d5357610d52610a3d565b5b600082013567ffffffffffffffff811115610d7157610d70610a42565b5b610d7d84828501610d0f565b91505092915050565b6000602082019050610d9b6000830184610b84565b92915050565b60008115159050919050565b610db681610da1565b82525050565b6000602082019050610dd16000830184610dad565b92915050565b60038110610de457600080fd5b50565b600081359050610df681610dd7565b92915050565b60008060408385031215610e1357610e12610a3d565b5b6000610e2185828601610a68565b9250506020610e3285828601610de7565b9150509250929050565b7f4e487b7100000000000000000000000000000000000000000000000000000000600052603260045260246000fd5b7f4e487b7100000000000000000000000000000000000000000000000000000000600052602260045260246000fd5b60006002820490506001821680610eb257607f821691505b602082108103610ec557610ec4610e6b565b5b50919050565b60008190508160005260206000209050919050565b60006020601f8301049050919050565b600082821b905092915050565b600060088302610f2d7fffffffffffffffffffffffffffffffffffffffffffffffffffffffffffffffff82610ef0565b610f378683610ef0565b95508019841693508086168417925050509392505050565b6000819050919050565b6000610f74610f6f610f6a84610a47565b610f4f565b610a47565b9050919050565b6000819050919050565b610f8e83610f59565b610fa2610f9a82610f7b565b848454610efd565b825550505050565b600090565b610fb7610faa565b610fc2818484610f85565b505050565b5b81811015610fe657610fdb600082610faf565b600181019050610fc8565b5050565b601f82111561102b57610ffc81610ecb565b61100584610ee0565b81016020851015611014578190505b61102861102085610ee0565b830182610fc7565b50505b505050565b600082821c905092915050565b600061104e60001984600802611030565b1980831691505092915050565b6000611067838361103d565b9150826002028217905092915050565b61108082610aaa565b67ffffffffffffffff81111561109957611098610c12565b5b6110a38254610e9a565b6110ae828285610fea565b600060209050601f8311600181146110e157600084156110cf578287015190505b6110d9858261105b565b865550611141565b601f1984166110ef86610ecb565b60005b82811015611117578489015182556001820191506020850194506020810190506110f2565b868310156111345784890151611130601f89168261103d565b8355505b6001600288020188555050505b505050505050565b7f4e487b7100000000000000000000000000000000000000000000000000000000600052601160045260246000fd5b600061118382610a47565b91507fffffffffffffffffffffffffffffffffffffffffffffffffffffffffffffffff82036111b5576111b4611149565b5b60018201905091905056fea2646970667358221220b2ad1acfb80a3bea3e06687b05ed5255ec0237092bf52f8299511a8d43adacbd64736f6c634300080f0033",
  "immutableReferences": {},
  "source": "// SPDX-License-Identifier: GPL-3.0\r\n\r\npragma solidity >= 0.5.0 < 0.9.0;\r\n\r\ncontract Voting{\r\n        uint public qnum;\r\n        struct Questions{\r\n            string question;\r\n            address asker;\r\n            uint questionNumber;\r\n        }\r\n\r\n        enum Options{Yes,No,Ignore}\r\n\r\n        struct Votes{\r\n            address voterAddress;\r\n            Options option;\r\n            uint questionNumber;\r\n        }\r\n\r\n        Questions[] public questions;\r\n        Votes[] public votes;\r\n\r\n        function askQuestion(string memory str) public {\r\n                Questions memory q = Questions(str,msg.sender,qnum);\r\n                questions.push(q);\r\n                qnum++;\r\n        }\r\n\r\n        Options public option;\r\n\r\n       function Vote(uint _questionNumber ,  Options _option) public{\r\n           require(_questionNumber <= qnum);\r\n           bool isvoted = isVoted(_questionNumber);\r\n           if(isvoted == true){\r\n               return;\r\n           }\r\n            option = _option;\r\n            Votes memory v = Votes(msg.sender,option,_questionNumber);\r\n            votes.push(v);\r\n       }\r\n\r\n\r\n\r\n        function isVoted(uint _questionNumber) public view returns(bool){\r\n            for(uint i = 0 ; i<votes.length;i++){\r\n                Votes memory v = votes[i];\r\n                if(v.voterAddress == msg.sender && v.questionNumber  ==  _questionNumber ){\r\n                    return true;\r\n                }\r\n            }\r\n            return false;\r\n        }\r\n\r\n\r\n    //    \r\n\r\n           function giveQuestion(uint num) public view returns(string memory,address,uint){\r\n                Questions memory ques = questions[num];\r\n                return (ques.question,ques.asker,ques.questionNumber);\r\n       }\r\n\r\n       function giveVotes(uint num) public view returns(address,Options,uint){\r\n           Votes memory vo = votes[num];\r\n           return (vo.voterAddress,vo.option,vo.questionNumber);\r\n       }\r\n\r\n       function questionLength() public view returns(uint){\r\n           return questions.length;\r\n       }\r\n\r\n       function votesLength() public view returns(uint){\r\n           return votes.length;\r\n       }\r\n\r\n        \r\n\r\n\r\n\r\n\r\n}",
  "sourcePath": "C:\\Users\\91892\\Desktop\\New folder\\server\\contracts\\Voting.sol",
  "compiler": {
    "name": "solc",
    "version": "0.8.15+commit.e14f2714.Emscripten.clang"
  },
  "schemaVersion": "3.4.8",
  "updatedAt": "2022-08-07T13:21:49.642Z",
  "networkType": "ethereum",
  "devdoc": {
    "kind": "dev",
    "methods": {},
    "version": 1
  },
  "userdoc": {
    "kind": "user",
    "methods": {},
    "version": 1
  }
}